:100000000C944A010C947B010C947B010C947B01B1
:100010000C947B010C947B010C947B010C947B0170
:100020000C947B010C947B010C947B010C947B0160
:100030000C947B010C947B010C947B010C947B0150
:100040000C947B010C947B010C947B010C947B0140
:100050000C947B010C947B010C947B010C945C034D
:100060000C947B010C94D0030C94A6030C947B019C
:100070000C947B010C947B010C947B010C947B0110
:100080000C947B010C947B010C947B010C947B0100
:100090000C947B010C947B010C947B010C947B01F0
:1000A0000C947B010C947B010C947B010C947B01E0
:1000B0000C947B010C947B010C947B010C947B01D0
:1000C0000C947B010C947B010C947B010C947B01C0
:1000D0000C947B010C947B010C947B010C947B01B0
:1000E0000C947B010C9418020C94C8050C94220209
:1000F0000C94DC050C94FA050C9455020C941E0229
:100100000C9428020C94D1010C94E6050C94B905CA
:100110000C94AF050C94EB010C94E7010C94CC010A
:100120000C94BE020C9463050C9478020C949B050D
:100130000C940A020C94EF010C9414020C946D05BB
:100140000C94E3010C94D2050C94F0050C94F2018C
:100150000C9486020C9406020C94FC010C9402028E
:100160000C9410020C94F8010C940B030C94680589
:100170000C9415060C948B050C9464020C94A50544
:100180000C9477050C9481050C94930500000A0BE0
:1001900002090C0D0E080703040100000000000016
:1001A000000000000000000000000000000000004F
:1001B000000000000000000012111000000000000C
:1001C000000000000000000000000000000000002F
:1001D000000000002200250028002B002E00310026
:1001E000340002010000050108010B01000021009C
:1001F000240027002A002D003000330001010000F8
:10020000040107010A010505050507050808080896
:10021000020202020A0A080804040404010101019E
:100220000101010103030303030303030407070799
:100230000C0C0C0C0C0C0C0C02020202060606063E
:10024000060606060B0B0B0B0B0B0B0B010210200B
:1002500020080810204010204080020102010804FC
:100260000201010204081020408080402010080490
:1002700002018004020180402010080402010804E9
:10028000020101020408102040800102040810202D
:100290004080150611241FBECFEFD1E2DEBFCDBFD7
:1002A00000E00CBF12E0A0E0B2E0E6E4FDE000E018
:1002B0000BBF02C007900D92A631B107D9F722E01B
:1002C000A6E1B2E001C01D92AC3BB207E1F711E03C
:1002D000CAE4D1E000E006C021970109802FFE01A9
:1002E0000E949206C934D10780E00807A9F70E944E
:1002F00006040C94A1060C94000090E0FC01E45B61
:10030000FD4F24918A5F9D4FFC018491882399F0D1
:1003100090E0880F991FFC01E451FE4FA591B49124
:10032000FC01EE52FE4F859194918FB7F894EC91B9
:10033000E22BEC938FBF0895282F30E0F901E457AA
:10034000FE4F9491F901E45BFD4F44912A5F3D4FCC
:10035000F9012491222309F435C0992311F1915018
:100360009231F8F4E92FF0E08827E654FE4F8F4FE2
:100370000C949206EB01EF01CC01E301E701D101FE
:10038000F201F801FC01020206020A021002140244
:10039000D10118021E022202809180008F77809383
:1003A0008000E22FF0E0EE0FFF1FEE52FE4FA5910E
:1003B000B4918FB7F894EC91611148C040954E23E9
:1003C0004C938FBF0895809180008F7DE8CF8091FE
:1003D0008000877FE4CF84B58F7784BDE2CF84B57A
:1003E0008F7DFBCF8091B0008F778093B000D9CF05
:1003F0008091B0008F7DF9CF809190008F778093AE
:100400009000CFCF809190008F7DF9CF80919000A8
:10041000877FF5CF8091A0008F778093A000C1CF18
:100420008091A0008F7DF9CF8091A000877FF5CFCC
:10043000809120018F7780932001B3CF809120019C
:100440008F7DF9CF80912001877FF5CF4E2BB8CFDC
:10045000AF92BF92CF92DF92EF92FF920F931F93D2
:10046000CF93DF936C017B018B01040F151FEB0110
:100470005E01AE18BF08C017D10759F06991D601C7
:10048000ED91FC910190F081E02DC6011995892B29
:1004900079F7C501DF91CF911F910F91FF90EF90F8
:1004A000DF90CF90BF90AF900895FC01538D448DA5
:1004B000252F30E0842F90E0821B930B541710F00F
:1004C000CF96089501970895FC01918D828D98171C
:1004D00061F0A28DAE0FBF2FB11D5D968C91928DF4
:1004E0009F5F9F73928F90E008958FEF9FEF089525
:1004F000FC01918D828D981731F0828DE80FF11DEE
:10050000858D90E008958FEF9FEF0895FC01918D08
:10051000228D892F90E0805C9F4F821B91098F7301
:100520009927089586E192E00E94860221E0892BB6
:1005300009F420E0822F0895FC01A48DA80FB92FA3
:10054000B11DA35ABF4F2C91848D90E001968F73FB
:100550009927848FA689B7892C93A089B1898C911A
:10056000837080648C93938D848D981306C0028869
:10057000F389E02D80818F7D80830895EF92FF9233
:100580000F931F93CF93DF93EC0181E0888F9B8DB6
:100590008C8D98131AC0E889F989808185FF15C070
:1005A0009FB7F894EE89FF896083E889F989808193
:1005B0008370806480839FBF81E090E0DF91CF9162
:1005C0001F910F91FF90EF900895F62E0B8D10E084
:1005D0000F5F1F4F0F731127E02E8C8D8E110CC0F3
:1005E0000FB607FCFACFE889F989808185FFF5CF3E
:1005F000CE010E949C02F1CFEB8DEC0FFD2FF11D7F
:10060000E35AFF4FF0829FB7F8940B8FEA89FB897A
:1006100080818062CFCFCF93DF93EC01888D8823D8
:10062000B9F0AA89BB89E889F9898C9185FD03C055
:10063000808186FD0DC00FB607FCF7CF8C9185FF3A
:10064000F2CF808185FFEDCFCE010E949C02E9CFE1
:10065000DF91CF91089580E090E0892B29F00E94EE
:10066000920281110E94000080E090E0892B49F005
:1006700080E090E0892B29F00E94000081110E9407
:10068000000080E090E0892B49F080E090E0892B29
:1006900029F00E94000081110E94000080E090E09B
:1006A000892B49F080E090E0892B29F00E9400001E
:1006B00081110C94000008951F920F920FB60F92B3
:1006C00011242F933F938F939F93AF93BF93809168
:1006D000B8029091B902A091BA02B091BB023091D8
:1006E000B70223E0230F2D3758F50196A11DB11D48
:1006F0002093B7028093B8029093B902A093BA02F4
:10070000B093BB028091B3029091B402A091B50264
:10071000B091B6020196A11DB11D8093B3029093D2
:10072000B402A093B502B093B602BF91AF919F916E
:100730008F913F912F910F900FBE0F901F901895A2
:1007400026E8230F0296A11DB11DD2CF1F920F9252
:100750000FB60F9211240BB60F922F933F934F9326
:100760005F936F937F938F939F93AF93BF93EF9319
:10077000FF9386E192E00E949C02FF91EF91BF916E
:10078000AF919F918F917F916F915F914F913F9129
:100790002F910F900BBE0F900FBE0F901F901895CA
:1007A0001F920F920FB60F9211240BB60F922F9338
:1007B0008F939F93EF93FF93E0912602F09127028E
:1007C0008081E0912C02F0912D0282FD1DC090816C
:1007D00080912F028F5F8F7320913002821741F03A
:1007E000E0912F02F0E0EA5EFD4F958F80932F029B
:1007F000FF91EF919F918F912F910F900BBE0F90D2
:100800000FBE0F901F9018958081F2CFCF93DF938A
:10081000CDB7DEB7A1970FB6F894DEBF0FBECDBF40
:10082000789484B5826084BD84B5816084BD85B5CB
:10083000826085BD85B5816085BD80916E008160D7
:1008400080936E001092810080918100826080937D
:10085000810080918100816080938100809180007F
:100860008160809380008091B10084608093B100AA
:100870008091B00081608093B0008091910082608F
:10088000809391008091910081608093910080918C
:1008900090008160809390008091A100826080939D
:1008A000A1008091A10081608093A1008091A000AF
:1008B00081608093A000809121018260809321015A
:1008C00080912101816080932101809120018160CC
:1008D0008093200180917A00846080937A008091D7
:1008E0007A00826080937A0080917A0081608093A0
:1008F0007A0080917A00806880937A001092C1001B
:1009000082E00E947D0183E00E947D0184E00E94DC
:100910007D0185E00E947D01E0912602F091270291
:1009200082E08083E0912202F09123021082E09124
:100930002402F09125028FEC808310922E02E09128
:100940002A02F0912B0286E08083E0912802F09148
:100950002902808180618083E0912802F091290240
:10096000808188608083E0912802F0912902808153
:1009700080688083E0912802F091290280818F7D38
:10098000808388248A9483E0982EA12CB12C90E94E
:10099000292E91E0392E2AE0C22ED12CE12CF12C07
:1009A00080917B00877F80937B0080E480937C0034
:1009B00080917A00806480937A0080917A0086FD2D
:1009C000FCCFA0917800B09179002FEF30E00E9429
:1009D0009A06A50194010E94420629013A01890163
:1009E00060E082E00E949C0161E083E00E949C0143
:1009F00084E00E947D014114510409F03FC060E091
:100A000084E00E949C0177FEFAC06DE286E192E0EC
:100A10000E94BE0222273327A9012419350946095D
:100A2000570919A28E010F5D1F4FCA01B901A70115
:100A300096010E946106605DF80162938F012115A5
:100A400031054105510589F70115110561F0019046
:100A50000020E9F73197AF01401B510BB80186E147
:100A600092E00E94280242E050E062E172E086E1FA
:100A700092E00E9428020E942B0392CF0F3F1105A3
:100A800011F461E0BDCFF1018491EFEFE80FE231A5
:100A900008F0B0C0F0E08827EF5AFA4F8F4F0C945F
:100AA0009206630568056D0577058105FA058B05D6
:100AB00093059B05A505AF05B905C805D205FA053F
:100AC000DC05E605F00584B5806884BD47BC9BCF96
:100AD00084B5806284BD48BC96CF809180008068D8
:100AE0008093800050928900409288008CCF809142
:100AF000800080628093800050928B0040928A0038
:100B000082CF8091800088608093800050928D0019
:100B100040928C0078CF8091B00080688093B000C4
:100B20004092B30070CF8091B00080628093B0009B
:100B30004092B40068CF80919000806880939000CC
:100B400050929900409298005ECF80919000806210
:100B50008093900050929B0040929A0054CF8091D5
:100B6000900088608093900050929D0040929C007D
:100B70004ACF8091A00080688093A0008091A0005F
:100B80008F7B8093A0005092A9004092A8003BCF99
:100B90008091A00080628093A0005092AB004092B0
:100BA000AA0031CF8091A00088608093A00050926D
:100BB000AD004092AC0027CF8091200180688093E7
:100BC000200150922901409228011DCF80912001DF
:100BD00080628093200150922B0140922A0113CF12
:100BE0008091200188608093200150922D014092D5
:100BF0002C0109CF003811050CF043CF00CFA30121
:100C0000920119A28E010F5D1F4FCA01B901A70100
:100C100096010E946106605DF80162938F012115C3
:100C200031054105510589F70FCFE6E1F2E0138266
:100C3000128288EE93E0A0E0B0E084839583A683DF
:100C4000B78384E092E09183808385EC90E0958780
:100C5000848784EC90E09787868780EC90E0918B86
:100C6000808B81EC90E0938B828B82EC90E0958B73
:100C7000848B86EC90E0978B868B118E128E138E70
:100C8000148E0895052E97FB1EF400940E945906B9
:100C900057FD07D00E94610607FC03D04EF40C9468
:100CA000590650954095309521953F4F4F4F5F4FD6
:100CB000089590958095709561957F4F8F4F9F4FC8
:100CC0000895A1E21A2EAA1BBB1BFD010DC0AA1F8D
:100CD000BB1FEE1FFF1FA217B307E407F50720F0A5
:100CE000A21BB30BE40BF50B661F771F881F991F20
:100CF0001A9469F760957095809590959B01AC0169
:100D0000BD01CF010895A29FB001B39FC001A39F71
:100D1000700D811D1124911DB29F700D811D112434
:100D2000911D0895EE0FFF1F881F8BBF0790F6914E
:100D3000E02D19940E948306B7FF0895821B930B40
:060D40000895F894FFCFB6
:100D460000000000BE02280255020B038602640260
:060D560078020D0A000006
:00000001FF
